{
  "_format": "hh-sol-artifact-1",
  "contractName": "TokenVesting",
  "sourceName": "contracts/TokenVesting.sol",
  "abi": [
    {
      "inputs": [
        {
          "internalType": "address",
          "name": "beneficiaryAddress",
          "type": "address"
        },
        {
          "internalType": "uint256",
          "name": "durationSeconds",
          "type": "uint256"
        }
      ],
      "stateMutability": "nonpayable",
      "type": "constructor"
    },
    {
      "anonymous": false,
      "inputs": [
        {
          "indexed": true,
          "internalType": "address",
          "name": "token",
          "type": "address"
        },
        {
          "indexed": false,
          "internalType": "uint256",
          "name": "amount",
          "type": "uint256"
        }
      ],
      "name": "ERC20Released",
      "type": "event"
    },
    {
      "inputs": [],
      "name": "beneficiary",
      "outputs": [
        {
          "internalType": "address",
          "name": "",
          "type": "address"
        }
      ],
      "stateMutability": "view",
      "type": "function"
    },
    {
      "inputs": [],
      "name": "duration",
      "outputs": [
        {
          "internalType": "uint256",
          "name": "",
          "type": "uint256"
        }
      ],
      "stateMutability": "view",
      "type": "function"
    },
    {
      "inputs": [
        {
          "internalType": "address",
          "name": "",
          "type": "address"
        }
      ],
      "name": "erc20Released",
      "outputs": [
        {
          "internalType": "uint256",
          "name": "",
          "type": "uint256"
        }
      ],
      "stateMutability": "view",
      "type": "function"
    },
    {
      "inputs": [
        {
          "internalType": "address",
          "name": "token",
          "type": "address"
        }
      ],
      "name": "release",
      "outputs": [],
      "stateMutability": "nonpayable",
      "type": "function"
    },
    {
      "inputs": [],
      "name": "start",
      "outputs": [
        {
          "internalType": "uint256",
          "name": "",
          "type": "uint256"
        }
      ],
      "stateMutability": "view",
      "type": "function"
    },
    {
      "inputs": [
        {
          "internalType": "address",
          "name": "token",
          "type": "address"
        },
        {
          "internalType": "uint256",
          "name": "timestamp",
          "type": "uint256"
        }
      ],
      "name": "vestedAmount",
      "outputs": [
        {
          "internalType": "uint256",
          "name": "",
          "type": "uint256"
        }
      ],
      "stateMutability": "view",
      "type": "function"
    }
  ],
  "bytecode": "0x60e06040523480156200001157600080fd5b5060405162000b9d38038062000b9d83398181016040528101906200003791906200019a565b600073ffffffffffffffffffffffffffffffffffffffff168273ffffffffffffffffffffffffffffffffffffffff1603620000a9576040517f08c379a0000000000000000000000000000000000000000000000000000000008152600401620000a09062000268565b60405180910390fd5b8173ffffffffffffffffffffffffffffffffffffffff1660808173ffffffffffffffffffffffffffffffffffffffff16815250504260a081815250508060c0818152505050506200028a565b600080fd5b600073ffffffffffffffffffffffffffffffffffffffff82169050919050565b60006200012782620000fa565b9050919050565b62000139816200011a565b81146200014557600080fd5b50565b60008151905062000159816200012e565b92915050565b6000819050919050565b62000174816200015f565b81146200018057600080fd5b50565b600081519050620001948162000169565b92915050565b60008060408385031215620001b457620001b3620000f5565b5b6000620001c48582860162000148565b9250506020620001d78582860162000183565b9150509250929050565b600082825260208201905092915050565b7f56657374696e6757616c6c65743a2062656e6566696369617279206973207a6560008201527f726f206164647265737300000000000000000000000000000000000000000000602082015250565b600062000250602a83620001e1565b91506200025d82620001f2565b604082019050919050565b60006020820190508181036000830152620002838162000241565b9050919050565b60805160a05160c0516108b9620002e46000396000818161013f0152818161025d01526102b901526000818161022b0152818161027e015281816102da01526104fe01526000818161043b01526104c201526108b96000f3fe608060405234801561001057600080fd5b50600436106100625760003560e01c80630fb5a6b41461006757806317cf53911461008557806319165587146100b557806338af3eed146100d1578063bbc702c6146100ef578063be9a65551461011f575b600080fd5b61006f61013d565b60405161007c9190610539565b60405180910390f35b61009f600480360381019061009a91906105e3565b610161565b6040516100ac9190610539565b60405180910390f35b6100cf60048036038101906100ca9190610623565b610323565b005b6100d96104c0565b6040516100e6919061065f565b60405180910390f35b61010960048036038101906101049190610623565b6104e4565b6040516101169190610539565b60405180910390f35b6101276104fc565b6040516101349190610539565b60405180910390f35b7f000000000000000000000000000000000000000000000000000000000000000081565b6000806000808573ffffffffffffffffffffffffffffffffffffffff1673ffffffffffffffffffffffffffffffffffffffff168152602001908152602001600020548473ffffffffffffffffffffffffffffffffffffffff166370a08231306040518263ffffffff1660e01b81526004016101dc919061065f565b602060405180830381865afa1580156101f9573d6000803e3d6000fd5b505050506040513d601f19601f8201168201806040525081019061021d919061068f565b61022791906106eb565b90507f000000000000000000000000000000000000000000000000000000000000000083101561025b57600091505061031d565b7f00000000000000000000000000000000000000000000000000000000000000007f00000000000000000000000000000000000000000000000000000000000000006102a791906106eb565b8311156102b7578091505061031d565b7f00000000000000000000000000000000000000000000000000000000000000007f000000000000000000000000000000000000000000000000000000000000000084610304919061071f565b8261030f9190610753565b61031991906107c4565b9150505b92915050565b60008060008373ffffffffffffffffffffffffffffffffffffffff1673ffffffffffffffffffffffffffffffffffffffff1681526020019081526020016000205461036e8342610161565b610378919061071f565b9050806000808473ffffffffffffffffffffffffffffffffffffffff1673ffffffffffffffffffffffffffffffffffffffff16815260200190815260200160002060008282546103c891906106eb565b925050819055508173ffffffffffffffffffffffffffffffffffffffff167fc0e523490dd523c33b1878c9eb14ff46991e3f5b2cd33710918618f2a39cba1b826040516104159190610539565b60405180910390a28173ffffffffffffffffffffffffffffffffffffffff1663a9059cbb7f0000000000000000000000000000000000000000000000000000000000000000836040518363ffffffff1660e01b81526004016104789291906107f5565b6020604051808303816000875af1158015610497573d6000803e3d6000fd5b505050506040513d601f19601f820116820180604052508101906104bb9190610856565b505050565b7f000000000000000000000000000000000000000000000000000000000000000081565b60006020528060005260406000206000915090505481565b7f000000000000000000000000000000000000000000000000000000000000000081565b6000819050919050565b61053381610520565b82525050565b600060208201905061054e600083018461052a565b92915050565b600080fd5b600073ffffffffffffffffffffffffffffffffffffffff82169050919050565b600061058482610559565b9050919050565b61059481610579565b811461059f57600080fd5b50565b6000813590506105b18161058b565b92915050565b6105c081610520565b81146105cb57600080fd5b50565b6000813590506105dd816105b7565b92915050565b600080604083850312156105fa576105f9610554565b5b6000610608858286016105a2565b9250506020610619858286016105ce565b9150509250929050565b60006020828403121561063957610638610554565b5b6000610647848285016105a2565b91505092915050565b61065981610579565b82525050565b60006020820190506106746000830184610650565b92915050565b600081519050610689816105b7565b92915050565b6000602082840312156106a5576106a4610554565b5b60006106b38482850161067a565b91505092915050565b7f4e487b7100000000000000000000000000000000000000000000000000000000600052601160045260246000fd5b60006106f682610520565b915061070183610520565b9250828201905080821115610719576107186106bc565b5b92915050565b600061072a82610520565b915061073583610520565b925082820390508181111561074d5761074c6106bc565b5b92915050565b600061075e82610520565b915061076983610520565b925082820261077781610520565b9150828204841483151761078e5761078d6106bc565b5b5092915050565b7f4e487b7100000000000000000000000000000000000000000000000000000000600052601260045260246000fd5b60006107cf82610520565b91506107da83610520565b9250826107ea576107e9610795565b5b828204905092915050565b600060408201905061080a6000830185610650565b610817602083018461052a565b9392505050565b60008115159050919050565b6108338161081e565b811461083e57600080fd5b50565b6000815190506108508161082a565b92915050565b60006020828403121561086c5761086b610554565b5b600061087a84828501610841565b9150509291505056fea26469706673582212203f3f89b45bd8ddc07eea7d01d0dd53334038b24dda89c69c4c06d6f02cd203fc64736f6c63430008120033",
  "linkReferences": {},
  "deployedLinkReferences": {}
}