{
  "_format": "hh-sol-artifact-1",
  "contractName": "TokenLocker",
  "sourceName": "contracts/TokenLocker.sol",
  "abi": [
    {
      "inputs": [
        {
          "internalType": "contract IERC20",
          "name": "token_",
          "type": "address"
        },
        {
          "internalType": "address",
          "name": "beneficiary_",
          "type": "address"
        },
        {
          "internalType": "uint256",
          "name": "lockTime_",
          "type": "uint256"
        }
      ],
      "stateMutability": "nonpayable",
      "type": "constructor"
    },
    {
      "anonymous": false,
      "inputs": [
        {
          "indexed": true,
          "internalType": "address",
          "name": "beneficiary",
          "type": "address"
        },
        {
          "indexed": true,
          "internalType": "address",
          "name": "token",
          "type": "address"
        },
        {
          "indexed": false,
          "internalType": "uint256",
          "name": "releasedTime",
          "type": "uint256"
        },
        {
          "indexed": false,
          "internalType": "uint256",
          "name": "amount",
          "type": "uint256"
        }
      ],
      "name": "Release",
      "type": "event"
    },
    {
      "anonymous": false,
      "inputs": [
        {
          "indexed": true,
          "internalType": "address",
          "name": "beneficary",
          "type": "address"
        },
        {
          "indexed": true,
          "internalType": "address",
          "name": "token",
          "type": "address"
        },
        {
          "indexed": false,
          "internalType": "uint256",
          "name": "startTime",
          "type": "uint256"
        },
        {
          "indexed": false,
          "internalType": "uint256",
          "name": "lockTime",
          "type": "uint256"
        }
      ],
      "name": "TokenLockStart",
      "type": "event"
    },
    {
      "inputs": [],
      "name": "beneficiary",
      "outputs": [
        {
          "internalType": "address",
          "name": "",
          "type": "address"
        }
      ],
      "stateMutability": "view",
      "type": "function"
    },
    {
      "inputs": [],
      "name": "lockTime",
      "outputs": [
        {
          "internalType": "uint256",
          "name": "",
          "type": "uint256"
        }
      ],
      "stateMutability": "view",
      "type": "function"
    },
    {
      "inputs": [],
      "name": "release",
      "outputs": [],
      "stateMutability": "nonpayable",
      "type": "function"
    },
    {
      "inputs": [],
      "name": "startTime",
      "outputs": [
        {
          "internalType": "uint256",
          "name": "",
          "type": "uint256"
        }
      ],
      "stateMutability": "view",
      "type": "function"
    },
    {
      "inputs": [],
      "name": "token",
      "outputs": [
        {
          "internalType": "contract IERC20",
          "name": "",
          "type": "address"
        }
      ],
      "stateMutability": "view",
      "type": "function"
    }
  ],
  "bytecode": "0x6101006040523480156200001257600080fd5b5060405162000be538038062000be5833981810160405281019062000038919062000252565b600081116200007e576040517f08c379a0000000000000000000000000000000000000000000000000000000008152600401620000759062000335565b60405180910390fd5b8273ffffffffffffffffffffffffffffffffffffffff1660808173ffffffffffffffffffffffffffffffffffffffff16815250508173ffffffffffffffffffffffffffffffffffffffff1660a08173ffffffffffffffffffffffffffffffffffffffff16815250508060c081815250504260e081815250508273ffffffffffffffffffffffffffffffffffffffff168273ffffffffffffffffffffffffffffffffffffffff167fe5d7d4b5cb0219916a8be73968f7baf3c806fd018b0cc5598f5129436cf5c31642846040516200015792919062000368565b60405180910390a350505062000395565b600080fd5b600073ffffffffffffffffffffffffffffffffffffffff82169050919050565b60006200019a826200016d565b9050919050565b6000620001ae826200018d565b9050919050565b620001c081620001a1565b8114620001cc57600080fd5b50565b600081519050620001e081620001b5565b92915050565b620001f1816200018d565b8114620001fd57600080fd5b50565b6000815190506200021181620001e6565b92915050565b6000819050919050565b6200022c8162000217565b81146200023857600080fd5b50565b6000815190506200024c8162000221565b92915050565b6000806000606084860312156200026e576200026d62000168565b5b60006200027e86828701620001cf565b9350506020620002918682870162000200565b9250506040620002a4868287016200023b565b9150509250925092565b600082825260208201905092915050565b7f546f6b656e4c6f636b3a6c6f636b2074696d652073686f756c6420677265617460008201527f6572207468616e20300000000000000000000000000000000000000000000000602082015250565b60006200031d602983620002ae565b91506200032a82620002bf565b604082019050919050565b6000602082019050818103600083015262000350816200030e565b9050919050565b620003628162000217565b82525050565b60006040820190506200037f600083018562000357565b6200038e602083018462000357565b9392505050565b60805160a05160c05160e0516107ed620003f860003960008181610128015261016d01526000818160e0015261014c01526000818161010401526102f70152600081816101dc015281816102bb0152818161037a015261040401526107ed6000f3fe608060405234801561001057600080fd5b50600436106100575760003560e01c80630d6680871461005c57806338af3eed1461007a57806378e979251461009857806386d1a69f146100b6578063fc0c546a146100c0575b600080fd5b6100646100de565b604051610071919061043f565b60405180910390f35b610082610102565b60405161008f919061049b565b60405180910390f35b6100a0610126565b6040516100ad919061043f565b60405180910390f35b6100be61014a565b005b6100c8610402565b6040516100d59190610515565b60405180910390f35b7f000000000000000000000000000000000000000000000000000000000000000081565b7f000000000000000000000000000000000000000000000000000000000000000081565b7f000000000000000000000000000000000000000000000000000000000000000081565b7f00000000000000000000000000000000000000000000000000000000000000007f0000000000000000000000000000000000000000000000000000000000000000610196919061055f565b4210156101d8576040517f08c379a00000000000000000000000000000000000000000000000000000000081526004016101cf90610616565b60405180910390fd5b60007f000000000000000000000000000000000000000000000000000000000000000073ffffffffffffffffffffffffffffffffffffffff166370a08231306040518263ffffffff1660e01b8152600401610233919061049b565b602060405180830381865afa158015610250573d6000803e3d6000fd5b505050506040513d601f19601f820116820180604052508101906102749190610667565b9050600081116102b9576040517f08c379a00000000000000000000000000000000000000000000000000000000081526004016102b0906106e0565b60405180910390fd5b7f000000000000000000000000000000000000000000000000000000000000000073ffffffffffffffffffffffffffffffffffffffff1663a9059cbb7f0000000000000000000000000000000000000000000000000000000000000000836040518363ffffffff1660e01b8152600401610334929190610700565b6020604051808303816000875af1158015610353573d6000803e3d6000fd5b505050506040513d601f19601f820116820180604052508101906103779190610761565b507f000000000000000000000000000000000000000000000000000000000000000073ffffffffffffffffffffffffffffffffffffffff163373ffffffffffffffffffffffffffffffffffffffff167f10b55f01b1cfe0feeb7d144f66162661602d8e73256499b6d8342aac37ff067942846040516103f792919061078e565b60405180910390a350565b7f000000000000000000000000000000000000000000000000000000000000000081565b6000819050919050565b61043981610426565b82525050565b60006020820190506104546000830184610430565b92915050565b600073ffffffffffffffffffffffffffffffffffffffff82169050919050565b60006104858261045a565b9050919050565b6104958161047a565b82525050565b60006020820190506104b0600083018461048c565b92915050565b6000819050919050565b60006104db6104d66104d18461045a565b6104b6565b61045a565b9050919050565b60006104ed826104c0565b9050919050565b60006104ff826104e2565b9050919050565b61050f816104f4565b82525050565b600060208201905061052a6000830184610506565b92915050565b7f4e487b7100000000000000000000000000000000000000000000000000000000600052601160045260246000fd5b600061056a82610426565b915061057583610426565b925082820190508082111561058d5761058c610530565b5b92915050565b600082825260208201905092915050565b7f546f6b656e4c6f636b3a63757272656e742074696d65206973206265666f726560008201527f2072656c656173652074696d6520000000000000000000000000000000000000602082015250565b6000610600602e83610593565b915061060b826105a4565b604082019050919050565b6000602082019050818103600083015261062f816105f3565b9050919050565b600080fd5b61064481610426565b811461064f57600080fd5b50565b6000815190506106618161063b565b92915050565b60006020828403121561067d5761067c610636565b5b600061068b84828501610652565b91505092915050565b7f546f6b656e4c6f636b3a206e6f20746f6b656e7320746f2072656c6561736500600082015250565b60006106ca601f83610593565b91506106d582610694565b602082019050919050565b600060208201905081810360008301526106f9816106bd565b9050919050565b6000604082019050610715600083018561048c565b6107226020830184610430565b9392505050565b60008115159050919050565b61073e81610729565b811461074957600080fd5b50565b60008151905061075b81610735565b92915050565b60006020828403121561077757610776610636565b5b60006107858482850161074c565b91505092915050565b60006040820190506107a36000830185610430565b6107b06020830184610430565b939250505056fea264697066735822122099ebc953112407c4a7dce36d61effd2a7e3b6a1277020f6c36d2e9164600de8064736f6c63430008120033",
  "linkReferences": {},
  "deployedLinkReferences": {}
}