{
  "_format": "hh-sol-artifact-1",
  "contractName": "TimeLock",
  "sourceName": "contracts/TimeLock.sol",
  "abi": [
    {
      "inputs": [
        {
          "internalType": "uint256",
          "name": "delay_",
          "type": "uint256"
        }
      ],
      "stateMutability": "nonpayable",
      "type": "constructor"
    },
    {
      "anonymous": false,
      "inputs": [
        {
          "indexed": true,
          "internalType": "bytes32",
          "name": "txHash",
          "type": "bytes32"
        },
        {
          "indexed": true,
          "internalType": "address",
          "name": "target",
          "type": "address"
        },
        {
          "indexed": false,
          "internalType": "uint256",
          "name": "value",
          "type": "uint256"
        },
        {
          "indexed": false,
          "internalType": "string",
          "name": "signature",
          "type": "string"
        },
        {
          "indexed": false,
          "internalType": "bytes",
          "name": "data",
          "type": "bytes"
        },
        {
          "indexed": false,
          "internalType": "uint256",
          "name": "executeTime",
          "type": "uint256"
        }
      ],
      "name": "CancelTransaction",
      "type": "event"
    },
    {
      "anonymous": false,
      "inputs": [
        {
          "indexed": true,
          "internalType": "bytes32",
          "name": "txHash",
          "type": "bytes32"
        },
        {
          "indexed": true,
          "internalType": "address",
          "name": "target",
          "type": "address"
        },
        {
          "indexed": false,
          "internalType": "uint256",
          "name": "value",
          "type": "uint256"
        },
        {
          "indexed": false,
          "internalType": "string",
          "name": "signature",
          "type": "string"
        },
        {
          "indexed": false,
          "internalType": "bytes",
          "name": "data",
          "type": "bytes"
        },
        {
          "indexed": false,
          "internalType": "uint256",
          "name": "executeTime",
          "type": "uint256"
        }
      ],
      "name": "ExecuteTransaction",
      "type": "event"
    },
    {
      "anonymous": false,
      "inputs": [
        {
          "indexed": true,
          "internalType": "address",
          "name": "NewAdmin",
          "type": "address"
        }
      ],
      "name": "NewAdmin",
      "type": "event"
    },
    {
      "anonymous": false,
      "inputs": [
        {
          "indexed": true,
          "internalType": "bytes32",
          "name": "txHash",
          "type": "bytes32"
        },
        {
          "indexed": true,
          "internalType": "address",
          "name": "target",
          "type": "address"
        },
        {
          "indexed": false,
          "internalType": "uint256",
          "name": "value",
          "type": "uint256"
        },
        {
          "indexed": false,
          "internalType": "string",
          "name": "signature",
          "type": "string"
        },
        {
          "indexed": false,
          "internalType": "bytes",
          "name": "data",
          "type": "bytes"
        },
        {
          "indexed": false,
          "internalType": "uint256",
          "name": "executeTime",
          "type": "uint256"
        }
      ],
      "name": "QueueTransaction",
      "type": "event"
    },
    {
      "inputs": [],
      "name": "GRACE_PERIOD",
      "outputs": [
        {
          "internalType": "uint256",
          "name": "",
          "type": "uint256"
        }
      ],
      "stateMutability": "view",
      "type": "function"
    },
    {
      "inputs": [],
      "name": "admin",
      "outputs": [
        {
          "internalType": "address",
          "name": "",
          "type": "address"
        }
      ],
      "stateMutability": "view",
      "type": "function"
    },
    {
      "inputs": [
        {
          "internalType": "address",
          "name": "target",
          "type": "address"
        },
        {
          "internalType": "uint256",
          "name": "value",
          "type": "uint256"
        },
        {
          "internalType": "string",
          "name": "signature",
          "type": "string"
        },
        {
          "internalType": "bytes",
          "name": "data",
          "type": "bytes"
        },
        {
          "internalType": "uint256",
          "name": "executeTime",
          "type": "uint256"
        }
      ],
      "name": "cancelTransaction",
      "outputs": [],
      "stateMutability": "nonpayable",
      "type": "function"
    },
    {
      "inputs": [
        {
          "internalType": "address",
          "name": "newAdmin",
          "type": "address"
        }
      ],
      "name": "changeAdmin",
      "outputs": [],
      "stateMutability": "nonpayable",
      "type": "function"
    },
    {
      "inputs": [],
      "name": "delay",
      "outputs": [
        {
          "internalType": "uint256",
          "name": "",
          "type": "uint256"
        }
      ],
      "stateMutability": "view",
      "type": "function"
    },
    {
      "inputs": [
        {
          "internalType": "address",
          "name": "target",
          "type": "address"
        },
        {
          "internalType": "uint256",
          "name": "value",
          "type": "uint256"
        },
        {
          "internalType": "string",
          "name": "signature",
          "type": "string"
        },
        {
          "internalType": "bytes",
          "name": "data",
          "type": "bytes"
        },
        {
          "internalType": "uint256",
          "name": "executeTime",
          "type": "uint256"
        }
      ],
      "name": "executeTransaction",
      "outputs": [
        {
          "internalType": "bytes",
          "name": "",
          "type": "bytes"
        }
      ],
      "stateMutability": "payable",
      "type": "function"
    },
    {
      "inputs": [],
      "name": "getBlockTimestamp",
      "outputs": [
        {
          "internalType": "uint256",
          "name": "",
          "type": "uint256"
        }
      ],
      "stateMutability": "view",
      "type": "function"
    },
    {
      "inputs": [
        {
          "internalType": "address",
          "name": "target",
          "type": "address"
        },
        {
          "internalType": "uint256",
          "name": "value",
          "type": "uint256"
        },
        {
          "internalType": "string",
          "name": "signature",
          "type": "string"
        },
        {
          "internalType": "bytes",
          "name": "data",
          "type": "bytes"
        },
        {
          "internalType": "uint256",
          "name": "executeTime",
          "type": "uint256"
        }
      ],
      "name": "getTxHash",
      "outputs": [
        {
          "internalType": "bytes32",
          "name": "",
          "type": "bytes32"
        }
      ],
      "stateMutability": "pure",
      "type": "function"
    },
    {
      "inputs": [
        {
          "internalType": "address",
          "name": "target",
          "type": "address"
        },
        {
          "internalType": "uint256",
          "name": "value",
          "type": "uint256"
        },
        {
          "internalType": "string",
          "name": "signature",
          "type": "string"
        },
        {
          "internalType": "bytes",
          "name": "data",
          "type": "bytes"
        },
        {
          "internalType": "uint256",
          "name": "executeTime",
          "type": "uint256"
        }
      ],
      "name": "queueTransaction",
      "outputs": [
        {
          "internalType": "bytes32",
          "name": "",
          "type": "bytes32"
        }
      ],
      "stateMutability": "nonpayable",
      "type": "function"
    }
  ],
  "bytecode": "0x60806040523480156200001157600080fd5b50604051620015d5380380620015d58339818101604052810190620000379190620000c5565b80600181905550336000806101000a81548173ffffffffffffffffffffffffffffffffffffffff021916908373ffffffffffffffffffffffffffffffffffffffff16021790555050620000f7565b600080fd5b6000819050919050565b6200009f816200008a565b8114620000ab57600080fd5b50565b600081519050620000bf8162000094565b92915050565b600060208284031215620000de57620000dd62000085565b5b6000620000ee84828501620000ae565b91505092915050565b6114ce80620001076000396000f3fe6080604052600436106100865760003560e01c80636a42b8f8116100595780636a42b8f81461015e578063796b89b9146101895780638f283970146101b4578063c1a287e2146101dd578063f851a4401461020857610086565b806304a715761461008b5780630825f38f146100c85780633a66f901146100f8578063591fcdfe14610135575b600080fd5b34801561009757600080fd5b506100b260048036038101906100ad9190610c5d565b610233565b6040516100bf9190610d29565b60405180910390f35b6100e260048036038101906100dd9190610c5d565b61026f565b6040516100ef9190610dc3565b60405180910390f35b34801561010457600080fd5b5061011f600480360381019061011a9190610c5d565b610592565b60405161012c9190610d29565b60405180910390f35b34801561014157600080fd5b5061015c60048036038101906101579190610c5d565b610719565b005b34801561016a57600080fd5b506101736108a1565b6040516101809190610df4565b60405180910390f35b34801561019557600080fd5b5061019e6108a7565b6040516101ab9190610df4565b60405180910390f35b3480156101c057600080fd5b506101db60048036038101906101d69190610e0f565b6108af565b005b3480156101e957600080fd5b506101f26109a3565b6040516101ff9190610df4565b60405180910390f35b34801561021457600080fd5b5061021d6109aa565b60405161022a9190610e4b565b60405180910390f35b6000858585858560405160200161024e959493929190610ebb565b60405160208183030381529060405280519060200120905095945050505050565b606060008054906101000a900473ffffffffffffffffffffffffffffffffffffffff1673ffffffffffffffffffffffffffffffffffffffff163373ffffffffffffffffffffffffffffffffffffffff16146102ff576040517f08c379a00000000000000000000000000000000000000000000000000000000081526004016102f690610f68565b60405180910390fd5b600061030e8787878787610233565b90506002600082815260200190815260200160002060009054906101000a900460ff16610370576040517f08c379a000000000000000000000000000000000000000000000000000000000815260040161036790610ffa565b60405180910390fd5b826103796108a7565b10156103ba576040517f08c379a00000000000000000000000000000000000000000000000000000000081526004016103b1906110b2565b60405180910390fd5b62093a80836103c99190611101565b6103d16108a7565b1115610412576040517f08c379a0000000000000000000000000000000000000000000000000000000008152600401610409906110b2565b60405180910390fd5b60006002600083815260200190815260200160002060006101000a81548160ff021916908315150217905550606060008651036104515784905061047d565b85805190602001208560405160200161046b9291906111be565b60405160208183030381529060405290505b6000808973ffffffffffffffffffffffffffffffffffffffff1689846040516104a691906111e6565b60006040518083038185875af1925050503d80600081146104e3576040519150601f19603f3d011682016040523d82523d6000602084013e6104e8565b606091505b50915091508161052d576040517f08c379a00000000000000000000000000000000000000000000000000000000081526004016105249061126f565b60405180910390fd5b8973ffffffffffffffffffffffffffffffffffffffff16847fa560e3198060a2f10670c1ec5b403077ea6ae93ca8de1c32b451dc1a943cd6e78b8b8b8b60405161057a949392919061128f565b60405180910390a38094505050505095945050505050565b60008060009054906101000a900473ffffffffffffffffffffffffffffffffffffffff1673ffffffffffffffffffffffffffffffffffffffff163373ffffffffffffffffffffffffffffffffffffffff1614610623576040517f08c379a000000000000000000000000000000000000000000000000000000000815260040161061a90610f68565b60405180910390fd5b60015461062e6108a7565b6106389190611101565b82101561067a576040517f08c379a00000000000000000000000000000000000000000000000000000000081526004016106719061137a565b60405180910390fd5b60006106898787878787610233565b905060016002600083815260200190815260200160002060006101000a81548160ff0219169083151502179055508673ffffffffffffffffffffffffffffffffffffffff16817f76e2796dc3a81d57b0e8504b647febcbeeb5f4af818e164f11eef8131a6a763f88888888604051610704949392919061128f565b60405180910390a38091505095945050505050565b60008054906101000a900473ffffffffffffffffffffffffffffffffffffffff1673ffffffffffffffffffffffffffffffffffffffff163373ffffffffffffffffffffffffffffffffffffffff16146107a7576040517f08c379a000000000000000000000000000000000000000000000000000000000815260040161079e90610f68565b60405180910390fd5b60006107b68686868686610233565b90506002600082815260200190815260200160002060009054906101000a900460ff16610818576040517f08c379a000000000000000000000000000000000000000000000000000000000815260040161080f9061140c565b60405180910390fd5b60006002600083815260200190815260200160002060006101000a81548160ff0219169083151502179055508573ffffffffffffffffffffffffffffffffffffffff16817f2fffc091a501fd91bfbff27141450d3acb40fb8e6d8382b243ec7a812a3aaf8787878787604051610891949392919061128f565b60405180910390a3505050505050565b60015481565b600042905090565b3073ffffffffffffffffffffffffffffffffffffffff163373ffffffffffffffffffffffffffffffffffffffff161461091d576040517f08c379a000000000000000000000000000000000000000000000000000000000815260040161091490611478565b60405180910390fd5b806000806101000a81548173ffffffffffffffffffffffffffffffffffffffff021916908373ffffffffffffffffffffffffffffffffffffffff1602179055508073ffffffffffffffffffffffffffffffffffffffff167f71614071b88dee5e0b2ae578a9dd7b2ebbe9ae832ba419dc0242cd065a290b6c60405160405180910390a250565b62093a8081565b60008054906101000a900473ffffffffffffffffffffffffffffffffffffffff1681565b6000604051905090565b600080fd5b600080fd5b600073ffffffffffffffffffffffffffffffffffffffff82169050919050565b6000610a0d826109e2565b9050919050565b610a1d81610a02565b8114610a2857600080fd5b50565b600081359050610a3a81610a14565b92915050565b6000819050919050565b610a5381610a40565b8114610a5e57600080fd5b50565b600081359050610a7081610a4a565b92915050565b600080fd5b600080fd5b6000601f19601f8301169050919050565b7f4e487b7100000000000000000000000000000000000000000000000000000000600052604160045260246000fd5b610ac982610a80565b810181811067ffffffffffffffff82111715610ae857610ae7610a91565b5b80604052505050565b6000610afb6109ce565b9050610b078282610ac0565b919050565b600067ffffffffffffffff821115610b2757610b26610a91565b5b610b3082610a80565b9050602081019050919050565b82818337600083830152505050565b6000610b5f610b5a84610b0c565b610af1565b905082815260208101848484011115610b7b57610b7a610a7b565b5b610b86848285610b3d565b509392505050565b600082601f830112610ba357610ba2610a76565b5b8135610bb3848260208601610b4c565b91505092915050565b600067ffffffffffffffff821115610bd757610bd6610a91565b5b610be082610a80565b9050602081019050919050565b6000610c00610bfb84610bbc565b610af1565b905082815260208101848484011115610c1c57610c1b610a7b565b5b610c27848285610b3d565b509392505050565b600082601f830112610c4457610c43610a76565b5b8135610c54848260208601610bed565b91505092915050565b600080600080600060a08688031215610c7957610c786109d8565b5b6000610c8788828901610a2b565b9550506020610c9888828901610a61565b945050604086013567ffffffffffffffff811115610cb957610cb86109dd565b5b610cc588828901610b8e565b935050606086013567ffffffffffffffff811115610ce657610ce56109dd565b5b610cf288828901610c2f565b9250506080610d0388828901610a61565b9150509295509295909350565b6000819050919050565b610d2381610d10565b82525050565b6000602082019050610d3e6000830184610d1a565b92915050565b600081519050919050565b600082825260208201905092915050565b60005b83811015610d7e578082015181840152602081019050610d63565b60008484015250505050565b6000610d9582610d44565b610d9f8185610d4f565b9350610daf818560208601610d60565b610db881610a80565b840191505092915050565b60006020820190508181036000830152610ddd8184610d8a565b905092915050565b610dee81610a40565b82525050565b6000602082019050610e096000830184610de5565b92915050565b600060208284031215610e2557610e246109d8565b5b6000610e3384828501610a2b565b91505092915050565b610e4581610a02565b82525050565b6000602082019050610e606000830184610e3c565b92915050565b600081519050919050565b600082825260208201905092915050565b6000610e8d82610e66565b610e978185610e71565b9350610ea7818560208601610d60565b610eb081610a80565b840191505092915050565b600060a082019050610ed06000830188610e3c565b610edd6020830187610de5565b8181036040830152610eef8186610e82565b90508181036060830152610f038185610d8a565b9050610f126080830184610de5565b9695505050505050565b7f54696d656c6f636b3a43616c6c6572206e6f742061646d696e00000000000000600082015250565b6000610f52601983610e71565b9150610f5d82610f1c565b602082019050919050565b60006020820190508181036000830152610f8181610f45565b9050919050565b7f54696d656c6f636b3a3a657865637574655472616e73616374696f6e3a20547260008201527f616e73616374696f6e206861736e2774206265656e207175657565642e000000602082015250565b6000610fe4603d83610e71565b9150610fef82610f88565b604082019050919050565b6000602082019050818103600083015261101381610fd7565b9050919050565b7f54696d656c6f636b3a3a657865637574655472616e73616374696f6e3a20547260008201527f616e73616374696f6e206861736e2774207375727061737365642074696d652060208201527f6c6f636b2e000000000000000000000000000000000000000000000000000000604082015250565b600061109c604583610e71565b91506110a78261101a565b606082019050919050565b600060208201905081810360008301526110cb8161108f565b9050919050565b7f4e487b7100000000000000000000000000000000000000000000000000000000600052601160045260246000fd5b600061110c82610a40565b915061111783610a40565b925082820190508082111561112f5761112e6110d2565b5b92915050565b60007fffffffff0000000000000000000000000000000000000000000000000000000082169050919050565b6000819050919050565b61117c61117782611135565b611161565b82525050565b600081905092915050565b600061119882610d44565b6111a28185611182565b93506111b2818560208601610d60565b80840191505092915050565b60006111ca828561116b565b6004820191506111da828461118d565b91508190509392505050565b60006111f2828461118d565b915081905092915050565b7f54696d656c6f636b3a3a657865637574655472616e73616374696f6e3a20547260008201527f616e73616374696f6e20657865637574696f6e2072657665727465642e000000602082015250565b6000611259603d83610e71565b9150611264826111fd565b604082019050919050565b600060208201905081810360008301526112888161124c565b9050919050565b60006080820190506112a46000830187610de5565b81810360208301526112b68186610e82565b905081810360408301526112ca8185610d8a565b90506112d96060830184610de5565b95945050505050565b7f54696d656c6f636b3a51554555455472616e73616374696f6e3a20457374696d60008201527f6174656420657865637574696f6e20626c6f636b206d7573742073617469736660208201527f792064656c61792e000000000000000000000000000000000000000000000000604082015250565b6000611364604883610e71565b915061136f826112e2565b606082019050919050565b6000602082019050818103600083015261139381611357565b9050919050565b7f54696d656c6f636b3a3a63616e63656c5472616e73616374696f6e3a2054726160008201527f6e73616374696f6e206861736e2774206265656e207175657565642e00000000602082015250565b60006113f6603c83610e71565b91506114018261139a565b604082019050919050565b60006020820190508181036000830152611425816113e9565b9050919050565b7f54696d656c6f636b3a43616c6c6572206e6f742054696d656c6f636b00000000600082015250565b6000611462601c83610e71565b915061146d8261142c565b602082019050919050565b6000602082019050818103600083015261149181611455565b905091905056fea264697066735822122060d1a9795f0d3535963b78655fba10134d220ee64a0397e76e79d569c29b362264736f6c63430008120033",
  "linkReferences": {},
  "deployedLinkReferences": {}
}